{
  "_format": "hh-sol-artifact-1",
  "contractName": "NFTFactory",
  "sourceName": "contracts/NftFactory.sol",
  "abi": [
    {
      "inputs": [
        {
          "internalType": "address",
          "name": "_nftImplementation",
          "type": "address"
        }
      ],
      "stateMutability": "nonpayable",
      "type": "constructor"
    },
    {
      "anonymous": false,
      "inputs": [
        {
          "indexed": false,
          "internalType": "address",
          "name": "sender",
          "type": "address"
        },
        {
          "indexed": false,
          "internalType": "address",
          "name": "store",
          "type": "address"
        },
        {
          "indexed": false,
          "internalType": "uint256",
          "name": "storeCount",
          "type": "uint256"
        }
      ],
      "name": "NftCreated",
      "type": "event"
    },
    {
      "anonymous": false,
      "inputs": [
        {
          "indexed": true,
          "internalType": "address",
          "name": "previousOwner",
          "type": "address"
        },
        {
          "indexed": true,
          "internalType": "address",
          "name": "newOwner",
          "type": "address"
        }
      ],
      "name": "OwnershipTransferred",
      "type": "event"
    },
    {
      "anonymous": false,
      "inputs": [
        {
          "indexed": false,
          "internalType": "address",
          "name": "sender",
          "type": "address"
        },
        {
          "indexed": false,
          "internalType": "address",
          "name": "nftImpl",
          "type": "address"
        }
      ],
      "name": "UpdateImplementation",
      "type": "event"
    },
    {
      "inputs": [],
      "name": "createNFT",
      "outputs": [
        {
          "internalType": "address",
          "name": "nft",
          "type": "address"
        }
      ],
      "stateMutability": "nonpayable",
      "type": "function"
    },
    {
      "inputs": [],
      "name": "getAllNFTs",
      "outputs": [
        {
          "internalType": "address[]",
          "name": "",
          "type": "address[]"
        }
      ],
      "stateMutability": "view",
      "type": "function"
    },
    {
      "inputs": [],
      "name": "nftImplementation",
      "outputs": [
        {
          "internalType": "address",
          "name": "",
          "type": "address"
        }
      ],
      "stateMutability": "view",
      "type": "function"
    },
    {
      "inputs": [],
      "name": "owner",
      "outputs": [
        {
          "internalType": "address",
          "name": "",
          "type": "address"
        }
      ],
      "stateMutability": "view",
      "type": "function"
    },
    {
      "inputs": [],
      "name": "renounceOwnership",
      "outputs": [],
      "stateMutability": "nonpayable",
      "type": "function"
    },
    {
      "inputs": [
        {
          "internalType": "address",
          "name": "newOwner",
          "type": "address"
        }
      ],
      "name": "transferOwnership",
      "outputs": [],
      "stateMutability": "nonpayable",
      "type": "function"
    },
    {
      "inputs": [
        {
          "internalType": "address",
          "name": "_nftImpl",
          "type": "address"
        }
      ],
      "name": "updateImplementation",
      "outputs": [],
      "stateMutability": "nonpayable",
      "type": "function"
    },
    {
      "inputs": [
        {
          "internalType": "address",
          "name": "",
          "type": "address"
        }
      ],
      "name": "userNFT",
      "outputs": [
        {
          "internalType": "address",
          "name": "",
          "type": "address"
        }
      ],
      "stateMutability": "view",
      "type": "function"
    }
  ],
  "bytecode": "0x608060405234801561001057600080fd5b5060405161079938038061079983398101604081905261002f916100af565b600380546001600160a01b0319166001600160a01b0383161790556100596100543390565b61005f565b506100dd565b600080546001600160a01b038381166001600160a01b0319831681178455604051919092169283917f8be0079c531659141344cd1fd0a4f28419497f9722a3daafe3b4186f6b6457e09190a35050565b6000602082840312156100c0578081fd5b81516001600160a01b03811681146100d6578182fd5b9392505050565b6106ad806100ec6000396000f3fe608060405234801561001057600080fd5b50600436106100875760003560e01c80638da5cb5b1161005b5780638da5cb5b146100f7578063e0391b0914610108578063f2fde38b1461011d578063f61ac58b1461013057600080fd5b8062c2378f1461008c578063025b22bc146100d2578063715018a6146100e75780638a97ec2a146100ef575b600080fd5b6100b561009a3660046105fc565b6002602052600090815260409020546001600160a01b031681565b6040516001600160a01b0390911681526020015b60405180910390f35b6100e56100e03660046105fc565b610143565b005b6100e56101be565b6100b56101d2565b6000546001600160a01b03166100b5565b610110610391565b6040516100c9919061062a565b6100e561012b3660046105fc565b6103f3565b6003546100b5906001600160a01b031681565b61014b610488565b6003805473ffffffffffffffffffffffffffffffffffffffff19166001600160a01b0383161790557fcdfeee65e4d0a88d6e47c5d034c34b03d52f1e6ffc56906257fc93d993ca04c433600354604080516001600160a01b0393841681529290911660208301520160405180910390a150565b6101c6610488565b6101d060006104e2565b565b60008033600354604080516001600160a01b039384166020820152929091169082015230606082015242608082015260a00160408051601f198184030181529190528051602090910120600354909150610235906001600160a01b03168261053f565b91506001600160a01b03821663cbca47db336040517fffffffff0000000000000000000000000000000000000000000000000000000060e084901b1681526001600160a01b039091166004820152602401600060405180830381600087803b1580156102a057600080fd5b505af11580156102b4573d6000803e3d6000fd5b5050505081600260006102c43390565b6001600160a01b03908116825260208201929092526040016000908120805493831673ffffffffffffffffffffffffffffffffffffffff1994851617905560018054808201825591527fb10e2d527612073b26eecdfd717e6a320cf44b4afac2b0732d9fcbe2b7fa0cf6018054918516919092161790557f4419c05c84e3cb8de84726cdaeba72711dd2766f53ebd2ce4da55f87ab5e12e86103633390565b600154604080516001600160a01b039384168152928616602084015282015260600160405180910390a15090565b606060018054806020026020016040519081016040528092919081815260200182805480156103e957602002820191906000526020600020905b81546001600160a01b031681526001909101906020018083116103cb575b5050505050905090565b6103fb610488565b6001600160a01b03811661047c5760405162461bcd60e51b815260206004820152602660248201527f4f776e61626c653a206e6577206f776e657220697320746865207a65726f206160448201527f646472657373000000000000000000000000000000000000000000000000000060648201526084015b60405180910390fd5b610485816104e2565b50565b6000546001600160a01b031633146101d05760405162461bcd60e51b815260206004820181905260248201527f4f776e61626c653a2063616c6c6572206973206e6f7420746865206f776e65726044820152606401610473565b600080546001600160a01b0383811673ffffffffffffffffffffffffffffffffffffffff19831681178455604051919092169283917f8be0079c531659141344cd1fd0a4f28419497f9722a3daafe3b4186f6b6457e09190a35050565b60006040517f3d602d80600a3d3981f3363d3d373d3d3d363d7300000000000000000000000081528360601b60148201527f5af43d82803e903d91602b57fd5bf300000000000000000000000000000000006028820152826037826000f59150506001600160a01b0381166105f65760405162461bcd60e51b815260206004820152601760248201527f455243313136373a2063726561746532206661696c65640000000000000000006044820152606401610473565b92915050565b60006020828403121561060d578081fd5b81356001600160a01b0381168114610623578182fd5b9392505050565b6020808252825182820181905260009190848201906040850190845b8181101561066b5783516001600160a01b031683529284019291840191600101610646565b5090969550505050505056fea2646970667358221220fec49aa3c1481eaf122d1afdce6b0ef6c2e90aa67d1971cf04f41edff6147e6864736f6c63430008040033",
  "linkReferences": {},
  "deployedLinkReferences": {}
}