{
  "_format": "hh-sol-artifact-1",
  "contractName": "NFTEIP712EIP191",
  "sourceName": "contracts/ERC721EIP191.sol",
  "abi": [
    {
      "inputs": [],
      "stateMutability": "nonpayable",
      "type": "constructor"
    },
    {
      "anonymous": false,
      "inputs": [
        {
          "indexed": true,
          "internalType": "address",
          "name": "owner",
          "type": "address"
        },
        {
          "indexed": true,
          "internalType": "address",
          "name": "approved",
          "type": "address"
        },
        {
          "indexed": true,
          "internalType": "uint256",
          "name": "tokenId",
          "type": "uint256"
        }
      ],
      "name": "Approval",
      "type": "event"
    },
    {
      "anonymous": false,
      "inputs": [
        {
          "indexed": true,
          "internalType": "address",
          "name": "owner",
          "type": "address"
        },
        {
          "indexed": true,
          "internalType": "address",
          "name": "operator",
          "type": "address"
        },
        {
          "indexed": false,
          "internalType": "bool",
          "name": "approved",
          "type": "bool"
        }
      ],
      "name": "ApprovalForAll",
      "type": "event"
    },
    {
      "anonymous": false,
      "inputs": [
        {
          "indexed": true,
          "internalType": "address",
          "name": "previousOwner",
          "type": "address"
        },
        {
          "indexed": true,
          "internalType": "address",
          "name": "newOwner",
          "type": "address"
        }
      ],
      "name": "OwnershipTransferred",
      "type": "event"
    },
    {
      "anonymous": false,
      "inputs": [
        {
          "indexed": true,
          "internalType": "address",
          "name": "from",
          "type": "address"
        },
        {
          "indexed": true,
          "internalType": "address",
          "name": "to",
          "type": "address"
        },
        {
          "indexed": true,
          "internalType": "uint256",
          "name": "tokenId",
          "type": "uint256"
        }
      ],
      "name": "Transfer",
      "type": "event"
    },
    {
      "inputs": [],
      "name": "MINT_STRUCT_HASH",
      "outputs": [
        {
          "internalType": "bytes32",
          "name": "",
          "type": "bytes32"
        }
      ],
      "stateMutability": "view",
      "type": "function"
    },
    {
      "inputs": [],
      "name": "SAFE_TRANSFER_SIG",
      "outputs": [
        {
          "internalType": "bytes32",
          "name": "",
          "type": "bytes32"
        }
      ],
      "stateMutability": "view",
      "type": "function"
    },
    {
      "inputs": [
        {
          "internalType": "address",
          "name": "to",
          "type": "address"
        },
        {
          "internalType": "uint256",
          "name": "tokenId",
          "type": "uint256"
        }
      ],
      "name": "approve",
      "outputs": [],
      "stateMutability": "nonpayable",
      "type": "function"
    },
    {
      "inputs": [
        {
          "internalType": "address",
          "name": "owner",
          "type": "address"
        }
      ],
      "name": "balanceOf",
      "outputs": [
        {
          "internalType": "uint256",
          "name": "",
          "type": "uint256"
        }
      ],
      "stateMutability": "view",
      "type": "function"
    },
    {
      "inputs": [
        {
          "internalType": "uint256",
          "name": "tokenId",
          "type": "uint256"
        }
      ],
      "name": "burn",
      "outputs": [],
      "stateMutability": "nonpayable",
      "type": "function"
    },
    {
      "inputs": [],
      "name": "domainSeparator",
      "outputs": [
        {
          "internalType": "bytes32",
          "name": "",
          "type": "bytes32"
        }
      ],
      "stateMutability": "view",
      "type": "function"
    },
    {
      "inputs": [
        {
          "internalType": "uint256",
          "name": "tokenId",
          "type": "uint256"
        }
      ],
      "name": "getApproved",
      "outputs": [
        {
          "internalType": "address",
          "name": "",
          "type": "address"
        }
      ],
      "stateMutability": "view",
      "type": "function"
    },
    {
      "inputs": [
        {
          "internalType": "address",
          "name": "owner",
          "type": "address"
        },
        {
          "internalType": "address",
          "name": "operator",
          "type": "address"
        }
      ],
      "name": "isApprovedForAll",
      "outputs": [
        {
          "internalType": "bool",
          "name": "",
          "type": "bool"
        }
      ],
      "stateMutability": "view",
      "type": "function"
    },
    {
      "inputs": [],
      "name": "name",
      "outputs": [
        {
          "internalType": "string",
          "name": "",
          "type": "string"
        }
      ],
      "stateMutability": "view",
      "type": "function"
    },
    {
      "inputs": [
        {
          "internalType": "address",
          "name": "",
          "type": "address"
        }
      ],
      "name": "nonce",
      "outputs": [
        {
          "internalType": "uint256",
          "name": "",
          "type": "uint256"
        }
      ],
      "stateMutability": "view",
      "type": "function"
    },
    {
      "inputs": [],
      "name": "owner",
      "outputs": [
        {
          "internalType": "address",
          "name": "",
          "type": "address"
        }
      ],
      "stateMutability": "view",
      "type": "function"
    },
    {
      "inputs": [
        {
          "internalType": "uint256",
          "name": "tokenId",
          "type": "uint256"
        }
      ],
      "name": "ownerOf",
      "outputs": [
        {
          "internalType": "address",
          "name": "",
          "type": "address"
        }
      ],
      "stateMutability": "view",
      "type": "function"
    },
    {
      "inputs": [],
      "name": "renounceOwnership",
      "outputs": [],
      "stateMutability": "nonpayable",
      "type": "function"
    },
    {
      "inputs": [
        {
          "internalType": "address",
          "name": "to",
          "type": "address"
        },
        {
          "internalType": "uint256",
          "name": "tokenId",
          "type": "uint256"
        },
        {
          "internalType": "string",
          "name": "uri",
          "type": "string"
        }
      ],
      "name": "safeMint",
      "outputs": [],
      "stateMutability": "nonpayable",
      "type": "function"
    },
    {
      "inputs": [
        {
          "internalType": "address",
          "name": "to",
          "type": "address"
        },
        {
          "internalType": "uint256",
          "name": "tokenId",
          "type": "uint256"
        },
        {
          "internalType": "string",
          "name": "uri",
          "type": "string"
        },
        {
          "internalType": "uint8",
          "name": "v",
          "type": "uint8"
        },
        {
          "internalType": "bytes32",
          "name": "r",
          "type": "bytes32"
        },
        {
          "internalType": "bytes32",
          "name": "s",
          "type": "bytes32"
        }
      ],
      "name": "safeMintWithSig",
      "outputs": [],
      "stateMutability": "nonpayable",
      "type": "function"
    },
    {
      "inputs": [
        {
          "internalType": "address",
          "name": "from",
          "type": "address"
        },
        {
          "internalType": "address",
          "name": "to",
          "type": "address"
        },
        {
          "internalType": "uint256",
          "name": "tokenId",
          "type": "uint256"
        }
      ],
      "name": "safeTransferFrom",
      "outputs": [],
      "stateMutability": "nonpayable",
      "type": "function"
    },
    {
      "inputs": [
        {
          "internalType": "address",
          "name": "from",
          "type": "address"
        },
        {
          "internalType": "address",
          "name": "to",
          "type": "address"
        },
        {
          "internalType": "uint256",
          "name": "tokenId",
          "type": "uint256"
        },
        {
          "internalType": "bytes",
          "name": "data",
          "type": "bytes"
        }
      ],
      "name": "safeTransferFrom",
      "outputs": [],
      "stateMutability": "nonpayable",
      "type": "function"
    },
    {
      "inputs": [
        {
          "internalType": "address",
          "name": "signatory",
          "type": "address"
        },
        {
          "internalType": "address",
          "name": "to",
          "type": "address"
        },
        {
          "internalType": "uint256",
          "name": "tokenId",
          "type": "uint256"
        },
        {
          "internalType": "uint8",
          "name": "v",
          "type": "uint8"
        },
        {
          "internalType": "bytes32",
          "name": "r",
          "type": "bytes32"
        },
        {
          "internalType": "bytes32",
          "name": "s",
          "type": "bytes32"
        }
      ],
      "name": "safeTransferFromSig",
      "outputs": [],
      "stateMutability": "nonpayable",
      "type": "function"
    },
    {
      "inputs": [
        {
          "internalType": "address",
          "name": "operator",
          "type": "address"
        },
        {
          "internalType": "bool",
          "name": "approved",
          "type": "bool"
        }
      ],
      "name": "setApprovalForAll",
      "outputs": [],
      "stateMutability": "nonpayable",
      "type": "function"
    },
    {
      "inputs": [
        {
          "internalType": "bytes4",
          "name": "interfaceId",
          "type": "bytes4"
        }
      ],
      "name": "supportsInterface",
      "outputs": [
        {
          "internalType": "bool",
          "name": "",
          "type": "bool"
        }
      ],
      "stateMutability": "view",
      "type": "function"
    },
    {
      "inputs": [],
      "name": "symbol",
      "outputs": [
        {
          "internalType": "string",
          "name": "",
          "type": "string"
        }
      ],
      "stateMutability": "view",
      "type": "function"
    },
    {
      "inputs": [
        {
          "internalType": "uint256",
          "name": "index",
          "type": "uint256"
        }
      ],
      "name": "tokenByIndex",
      "outputs": [
        {
          "internalType": "uint256",
          "name": "",
          "type": "uint256"
        }
      ],
      "stateMutability": "view",
      "type": "function"
    },
    {
      "inputs": [
        {
          "internalType": "address",
          "name": "owner",
          "type": "address"
        },
        {
          "internalType": "uint256",
          "name": "index",
          "type": "uint256"
        }
      ],
      "name": "tokenOfOwnerByIndex",
      "outputs": [
        {
          "internalType": "uint256",
          "name": "",
          "type": "uint256"
        }
      ],
      "stateMutability": "view",
      "type": "function"
    },
    {
      "inputs": [
        {
          "internalType": "uint256",
          "name": "tokenId",
          "type": "uint256"
        }
      ],
      "name": "tokenURI",
      "outputs": [
        {
          "internalType": "string",
          "name": "",
          "type": "string"
        }
      ],
      "stateMutability": "view",
      "type": "function"
    },
    {
      "inputs": [],
      "name": "totalSupply",
      "outputs": [
        {
          "internalType": "uint256",
          "name": "",
          "type": "uint256"
        }
      ],
      "stateMutability": "view",
      "type": "function"
    },
    {
      "inputs": [
        {
          "internalType": "address",
          "name": "from",
          "type": "address"
        },
        {
          "internalType": "address",
          "name": "to",
          "type": "address"
        },
        {
          "internalType": "uint256",
          "name": "tokenId",
          "type": "uint256"
        }
      ],
      "name": "transferFrom",
      "outputs": [],
      "stateMutability": "nonpayable",
      "type": "function"
    },
    {
      "inputs": [
        {
          "internalType": "address",
          "name": "newOwner",
          "type": "address"
        }
      ],
      "name": "transferOwnership",
      "outputs": [],
      "stateMutability": "nonpayable",
      "type": "function"
    }
  ],
  "bytecode": "0x6101406040523480156200001257600080fd5b506040518060400160405280601181526020017027232a1022a4a8189c989322a4a81b989960791b81525060405180604001604052806005815260200164312e302e3160d81b8152506040518060400160405280601181526020017027232a1022a4a8189c989322a4a81b989960791b8152506040518060400160405280600381526020016213919560ea1b8152508160009080519060200190620000b9929190620001d2565b508051620000cf906001906020840190620001d2565b5050825160208085019190912083518483012060e08290526101008190524660a0818152604080517f8b73c3c69bb8fe3d512ecc4cf759cc79239f7b179b0ffacaa9a75d522b39400f81880181905281830187905260608201869052608082019490945230818401528151808203909301835260c0019052805194019390932091935091906080523060601b60c05261012052506200017a9250620001749150503390565b62000180565b620002b5565b600b80546001600160a01b038381166001600160a01b0319831681179093556040519116919082907f8be0079c531659141344cd1fd0a4f28419497f9722a3daafe3b4186f6b6457e090600090a35050565b828054620001e09062000278565b90600052602060002090601f0160209004810192826200020457600085556200024f565b82601f106200021f57805160ff19168380011785556200024f565b828001600101855582156200024f579182015b828111156200024f57825182559160200191906001019062000232565b506200025d92915062000261565b5090565b5b808211156200025d576000815560010162000262565b600181811c908216806200028d57607f821691505b60208210811415620002af57634e487b7160e01b600052602260045260246000fd5b50919050565b60805160a05160c05160601c60e0516101005161012051612be562000308600039600061125a015260006112a901526000611284015260006111dd01526000611207015260006112310152612be56000f3fe608060405234801561001057600080fd5b50600436106101b95760003560e01c806370a08231116100f9578063b88d4fde11610097578063e985e9c511610071578063e985e9c5146103c4578063f107cdd014610400578063f2fde38b14610413578063f698da251461042657600080fd5b8063b88d4fde1461038b578063c87b56dd1461039e578063cd279c7c146103b157600080fd5b80638da5cb5b116100d35780638da5cb5b14610338578063921d12ba1461034957806395d89b4114610370578063a22cb4651461037857600080fd5b806370a08231146102fd57806370ae92d214610310578063715018a61461033057600080fd5b806318160ddd1161016657806342842e0e1161014057806342842e0e146102b157806342966c68146102c45780634f6ccce7146102d75780636352211e146102ea57600080fd5b806318160ddd1461028357806323b872dd1461028b5780632f745c591461029e57600080fd5b8063081812fc11610197578063081812fc14610230578063095ea7b31461025b5780630b62d4441461027057600080fd5b806301ffc9a7146101be57806306fdde03146101e657806307a70186146101fb575b600080fd5b6101d16101cc366004612932565b61042e565b60405190151581526020015b60405180910390f35b6101ee61043f565b6040516101dd9190612a6b565b6102227f955119ae08b624296df45117d47828b38879e2269f006f7ce630815dbe3f745b81565b6040519081526020016101dd565b61024361023e36600461296a565b6104d1565b6040516001600160a01b0390911681526020016101dd565b61026e6102693660046127f5565b6104f8565b005b61026e61027e36600461275d565b61062f565b600854610222565b61026e6102993660046126a9565b6108d1565b6102226102ac3660046127f5565b61094a565b61026e6102bf3660046126a9565b6109f2565b61026e6102d236600461296a565b610a0d565b6102226102e536600461296a565b610a85565b6102436102f836600461296a565b610b37565b61022261030b36600461265d565b610b9c565b61022261031e36600461265d565b600c6020526000908152604090205481565b61026e610c36565b600b546001600160a01b0316610243565b6102227fe0fb4d27dc1b2615cb5dcad42f29b34155f1ee9c4a51cb42ee1ddda16388ed3c81565b6101ee610c4a565b61026e6103863660046127bb565b610c59565b61026e6103993660046126e4565b610c68565b6101ee6103ac36600461296a565b610ce7565b61026e6103bf3660046128ca565b610cf2565b6101d16103d2366004612677565b6001600160a01b03918216600090815260056020908152604080832093909416825291909152205460ff1690565b61026e61040e36600461281e565b610d0e565b61026e61042136600461265d565b610f91565b61022261101e565b60006104398261102d565b92915050565b60606000805461044e90612aed565b80601f016020809104026020016040519081016040528092919081815260200182805461047a90612aed565b80156104c75780601f1061049c576101008083540402835291602001916104c7565b820191906000526020600020905b8154815290600101906020018083116104aa57829003601f168201915b5050505050905090565b60006104dc8261106b565b506000908152600460205260409020546001600160a01b031690565b600061050382610b37565b9050806001600160a01b0316836001600160a01b031614156105925760405162461bcd60e51b815260206004820152602160248201527f4552433732313a20617070726f76616c20746f2063757272656e74206f776e6560448201527f720000000000000000000000000000000000000000000000000000000000000060648201526084015b60405180910390fd5b336001600160a01b03821614806105ae57506105ae81336103d2565b6106205760405162461bcd60e51b815260206004820152603e60248201527f4552433732313a20617070726f76652063616c6c6572206973206e6f7420746f60448201527f6b656e206f776e6572206e6f7220617070726f76656420666f7220616c6c00006064820152608401610589565b61062a83836110cf565b505050565b6001600160a01b0386166000908152600c602052604081208054829061065490612b28565b9182905550604080517f955119ae08b624296df45117d47828b38879e2269f006f7ce630815dbe3f745b60208201526001600160a01b03891691810191909152606081018790526080810182905290915060009060a00160405160208183030381529060405280519060200120905060006106d96106d18361113d565b8787876111a6565b905060006106e56111d0565b6040805160208101929092527f955119ae08b624296df45117d47828b38879e2269f006f7ce630815dbe3f745b9082015260608a811b6bffffffffffffffffffffffff191690820152607481018990526094810185905260b40160405160208183030381529060405280519060200120905060006107bb6107b3836040517f19457468657265756d205369676e6564204d6573736167653a0a3332000000006020820152603c8101829052600090605c01604051602081830303815290604052805190602001209050919050565b8989896111a6565b905060006107c88a610b37565b9050816001600160a01b0316816001600160a01b031614806107fb5750836001600160a01b0316816001600160a01b0316145b6108475760405162461bcd60e51b815260206004820152601360248201527f756e617574686f72697a656420616374696f6e000000000000000000000000006044820152606401610589565b806001600160a01b03168c6001600160a01b0316146108a85760405162461bcd60e51b815260206004820152601760248201527f7369676e61746f7279206d757374206265206f776e65720000000000000000006044820152606401610589565b6108c3818c8c604051806020016040528060008152506112f7565b505050505050505050505050565b6108dc335b82611375565b61093f5760405162461bcd60e51b815260206004820152602e60248201527f4552433732313a2063616c6c6572206973206e6f7420746f6b656e206f776e6560448201526d1c881b9bdc88185c1c1c9bdd995960921b6064820152608401610589565b61062a8383836113f3565b600061095583610b9c565b82106109c95760405162461bcd60e51b815260206004820152602b60248201527f455243373231456e756d657261626c653a206f776e657220696e646578206f7560448201527f74206f6620626f756e64730000000000000000000000000000000000000000006064820152608401610589565b506001600160a01b03919091166000908152600660209081526040808320938352929052205490565b61062a83838360405180602001604052806000815250610c68565b610a16336108d6565b610a795760405162461bcd60e51b815260206004820152602e60248201527f4552433732313a2063616c6c6572206973206e6f7420746f6b656e206f776e6560448201526d1c881b9bdc88185c1c1c9bdd995960921b6064820152608401610589565b610a82816115cb565b50565b6000610a9060085490565b8210610b045760405162461bcd60e51b815260206004820152602c60248201527f455243373231456e756d657261626c653a20676c6f62616c20696e646578206f60448201527f7574206f6620626f756e647300000000000000000000000000000000000000006064820152608401610589565b60088281548110610b2557634e487b7160e01b600052603260045260246000fd5b90600052602060002001549050919050565b6000818152600260205260408120546001600160a01b0316806104395760405162461bcd60e51b815260206004820152601860248201527f4552433732313a20696e76616c696420746f6b656e20494400000000000000006044820152606401610589565b60006001600160a01b038216610c1a5760405162461bcd60e51b815260206004820152602960248201527f4552433732313a2061646472657373207a65726f206973206e6f74206120766160448201527f6c6964206f776e657200000000000000000000000000000000000000000000006064820152608401610589565b506001600160a01b031660009081526003602052604090205490565b610c3e6115d4565b610c48600061162e565b565b60606001805461044e90612aed565b610c64338383611680565b5050565b610c723383611375565b610cd55760405162461bcd60e51b815260206004820152602e60248201527f4552433732313a2063616c6c6572206973206e6f7420746f6b656e206f776e6560448201526d1c881b9bdc88185c1c1c9bdd995960921b6064820152608401610589565b610ce1848484846112f7565b50505050565b60606104398261174f565b610cfa6115d4565b610d048383611858565b61062a8282611872565b6000600c6000610d26600b546001600160a01b031690565b6001600160a01b03166001600160a01b0316815260200190815260200160002060008154610d5390612b28565b919050819055905060007fe0fb4d27dc1b2615cb5dcad42f29b34155f1ee9c4a51cb42ee1ddda16388ed3c89898989604051610d909291906129f0565b604051908190038120610dd19493929187906020019485526001600160a01b0393909316602085015260408401919091526060830152608082015260a00190565b6040516020818303038152906040528051906020012090506000610df36111d0565b7fe0fb4d27dc1b2615cb5dcad42f29b34155f1ee9c4a51cb42ee1ddda16388ed3c8b8b8b8b88604051602001610e2f97969594939291906129ae565b6040516020818303038152906040528051906020012090506000610e5d610e558461113d565b8888886111a6565b90506000610ebb6107b3846040517f19457468657265756d205369676e6564204d6573736167653a0a3332000000006020820152603c8101829052600090605c01604051602081830303815290604052805190602001209050919050565b9050610ecf600b546001600160a01b031690565b6001600160a01b0316826001600160a01b03161480610efb5750600b546001600160a01b038281169116145b610f475760405162461bcd60e51b815260206004820152601360248201527f756e617574686f72697a6564207369676e6572000000000000000000000000006044820152606401610589565b610f518c8c611858565b6108c38b8b8b8080601f01602080910402602001604051908101604052809392919081815260200183838082843760009201919091525061187292505050565b610f996115d4565b6001600160a01b0381166110155760405162461bcd60e51b815260206004820152602660248201527f4f776e61626c653a206e6577206f776e657220697320746865207a65726f206160448201527f64647265737300000000000000000000000000000000000000000000000000006064820152608401610589565b610a828161162e565b60006110286111d0565b905090565b60006001600160e01b031982167f780e9d6300000000000000000000000000000000000000000000000000000000148061043957506104398261191b565b6000818152600260205260409020546001600160a01b0316610a825760405162461bcd60e51b815260206004820152601860248201527f4552433732313a20696e76616c696420746f6b656e20494400000000000000006044820152606401610589565b600081815260046020526040902080546001600160a01b0319166001600160a01b038416908117909155819061110482610b37565b6001600160a01b03167f8c5be1e5ebec7d5bd14f71427d1e84f3dd0314c0f7b2291e5b200ac8c7c3b92560405160405180910390a45050565b600061043961114a6111d0565b836040517f19010000000000000000000000000000000000000000000000000000000000006020820152602281018390526042810182905260009060620160405160208183030381529060405280519060200120905092915050565b60008060006111b7878787876119b6565b915091506111c481611aa3565b5090505b949350505050565b6000306001600160a01b037f00000000000000000000000000000000000000000000000000000000000000001614801561122957507f000000000000000000000000000000000000000000000000000000000000000046145b1561125357507f000000000000000000000000000000000000000000000000000000000000000090565b50604080517f00000000000000000000000000000000000000000000000000000000000000006020808301919091527f0000000000000000000000000000000000000000000000000000000000000000828401527f000000000000000000000000000000000000000000000000000000000000000060608301524660808301523060a0808401919091528351808403909101815260c0909201909252805191012090565b6113028484846113f3565b61130e84848484611ca4565b610ce15760405162461bcd60e51b815260206004820152603260248201527f4552433732313a207472616e7366657220746f206e6f6e20455243373231526560448201527131b2b4bb32b91034b6b83632b6b2b73a32b960711b6064820152608401610589565b60008061138183610b37565b9050806001600160a01b0316846001600160a01b031614806113c857506001600160a01b0380821660009081526005602090815260408083209388168352929052205460ff165b806111c85750836001600160a01b03166113e1846104d1565b6001600160a01b031614949350505050565b826001600160a01b031661140682610b37565b6001600160a01b0316146114825760405162461bcd60e51b815260206004820152602560248201527f4552433732313a207472616e736665722066726f6d20696e636f72726563742060448201527f6f776e65720000000000000000000000000000000000000000000000000000006064820152608401610589565b6001600160a01b0382166114fd5760405162461bcd60e51b8152602060048201526024808201527f4552433732313a207472616e7366657220746f20746865207a65726f2061646460448201527f72657373000000000000000000000000000000000000000000000000000000006064820152608401610589565b611508838383611df9565b6115136000826110cf565b6001600160a01b038316600090815260036020526040812080546001929061153c908490612aaa565b90915550506001600160a01b038216600090815260036020526040812080546001929061156a908490612a7e565b909155505060008181526002602052604080822080546001600160a01b0319166001600160a01b0386811691821790925591518493918716917fddf252ad1be2c89b69c2b068fc378daa952ba7f163c4a11628f55a4df523b3ef91a4505050565b610a8281611e04565b600b546001600160a01b03163314610c485760405162461bcd60e51b815260206004820181905260248201527f4f776e61626c653a2063616c6c6572206973206e6f7420746865206f776e65726044820152606401610589565b600b80546001600160a01b038381166001600160a01b0319831681179093556040519116919082907f8be0079c531659141344cd1fd0a4f28419497f9722a3daafe3b4186f6b6457e090600090a35050565b816001600160a01b0316836001600160a01b031614156116e25760405162461bcd60e51b815260206004820152601960248201527f4552433732313a20617070726f766520746f2063616c6c6572000000000000006044820152606401610589565b6001600160a01b03838116600081815260056020908152604080832094871680845294825291829020805460ff191686151590811790915591519182527f17307eab39ab6107e8899845ad3d59bd9653f200f220920489ca2b5937696c31910160405180910390a3505050565b606061175a8261106b565b6000828152600a60205260408120805461177390612aed565b80601f016020809104026020016040519081016040528092919081815260200182805461179f90612aed565b80156117ec5780601f106117c1576101008083540402835291602001916117ec565b820191906000526020600020905b8154815290600101906020018083116117cf57829003601f168201915b50505050509050600061180a60408051602081019091526000815290565b905080516000141561181d575092915050565b81511561184f578082604051602001611837929190612a00565b60405160208183030381529060405292505050919050565b6111c884611e44565b610c64828260405180602001604052806000815250611eb8565b6000828152600260205260409020546001600160a01b03166118fc5760405162461bcd60e51b815260206004820152602e60248201527f45524337323155524953746f726167653a2055524920736574206f66206e6f6e60448201527f6578697374656e7420746f6b656e0000000000000000000000000000000000006064820152608401610589565b6000828152600a60209081526040909120825161062a928401906124eb565b60006001600160e01b031982167f80ac58cd00000000000000000000000000000000000000000000000000000000148061197e57506001600160e01b031982167f5b5e139f00000000000000000000000000000000000000000000000000000000145b8061043957507f01ffc9a7000000000000000000000000000000000000000000000000000000006001600160e01b0319831614610439565b6000807f7fffffffffffffffffffffffffffffff5d576e7357a4501ddfe92f46681b20a08311156119ed5750600090506003611a9a565b8460ff16601b14158015611a0557508460ff16601c14155b15611a165750600090506004611a9a565b6040805160008082526020820180845289905260ff881692820192909252606081018690526080810185905260019060a0016020604051602081039080840390855afa158015611a6a573d6000803e3d6000fd5b5050604051601f1901519150506001600160a01b038116611a9357600060019250925050611a9a565b9150600090505b94509492505050565b6000816004811115611ac557634e487b7160e01b600052602160045260246000fd5b1415611ace5750565b6001816004811115611af057634e487b7160e01b600052602160045260246000fd5b1415611b3e5760405162461bcd60e51b815260206004820152601860248201527f45434453413a20696e76616c6964207369676e617475726500000000000000006044820152606401610589565b6002816004811115611b6057634e487b7160e01b600052602160045260246000fd5b1415611bae5760405162461bcd60e51b815260206004820152601f60248201527f45434453413a20696e76616c6964207369676e6174757265206c656e677468006044820152606401610589565b6003816004811115611bd057634e487b7160e01b600052602160045260246000fd5b1415611c295760405162461bcd60e51b815260206004820152602260248201527f45434453413a20696e76616c6964207369676e6174757265202773272076616c604482015261756560f01b6064820152608401610589565b6004816004811115611c4b57634e487b7160e01b600052602160045260246000fd5b1415610a825760405162461bcd60e51b815260206004820152602260248201527f45434453413a20696e76616c6964207369676e6174757265202776272076616c604482015261756560f01b6064820152608401610589565b60006001600160a01b0384163b15611df157604051630a85bd0160e11b81526001600160a01b0385169063150b7a0290611ce8903390899088908890600401612a2f565b602060405180830381600087803b158015611d0257600080fd5b505af1925050508015611d32575060408051601f3d908101601f19168201909252611d2f9181019061294e565b60015b611dd7573d808015611d60576040519150601f19603f3d011682016040523d82523d6000602084013e611d65565b606091505b508051611dcf5760405162461bcd60e51b815260206004820152603260248201527f4552433732313a207472616e7366657220746f206e6f6e20455243373231526560448201527131b2b4bb32b91034b6b83632b6b2b73a32b960711b6064820152608401610589565b805181602001fd5b6001600160e01b031916630a85bd0160e11b1490506111c8565b5060016111c8565b61062a838383611f36565b611e0d81611fee565b6000818152600a602052604090208054611e2690612aed565b159050610a82576000818152600a60205260408120610a829161256f565b6060611e4f8261106b565b6000611e6660408051602081019091526000815290565b90506000815111611e865760405180602001604052806000815250611eb1565b80611e9084612095565b604051602001611ea1929190612a00565b6040516020818303038152906040525b9392505050565b611ec283836121e3565b611ecf6000848484611ca4565b61062a5760405162461bcd60e51b815260206004820152603260248201527f4552433732313a207472616e7366657220746f206e6f6e20455243373231526560448201527131b2b4bb32b91034b6b83632b6b2b73a32b960711b6064820152608401610589565b6001600160a01b038316611f9157611f8c81600880546000838152600960205260408120829055600182018355919091527ff3f7a9fe364faab93b216da50a3214154f22a0a2b415b23a84c8169e8b636ee30155565b611fb4565b816001600160a01b0316836001600160a01b031614611fb457611fb48382612331565b6001600160a01b038216611fcb5761062a816123ce565b826001600160a01b0316826001600160a01b03161461062a5761062a82826124a7565b6000611ff982610b37565b905061200781600084611df9565b6120126000836110cf565b6001600160a01b038116600090815260036020526040812080546001929061203b908490612aaa565b909155505060008281526002602052604080822080546001600160a01b0319169055518391906001600160a01b038416907fddf252ad1be2c89b69c2b068fc378daa952ba7f163c4a11628f55a4df523b3ef908390a45050565b6060816120d557505060408051808201909152600181527f3000000000000000000000000000000000000000000000000000000000000000602082015290565b8160005b81156120ff57806120e981612b28565b91506120f89050600a83612a96565b91506120d9565b60008167ffffffffffffffff81111561212857634e487b7160e01b600052604160045260246000fd5b6040519080825280601f01601f191660200182016040528015612152576020820181803683370190505b5090505b84156111c857612167600183612aaa565b9150612174600a86612b43565b61217f906030612a7e565b60f81b8183815181106121a257634e487b7160e01b600052603260045260246000fd5b60200101907effffffffffffffffffffffffffffffffffffffffffffffffffffffffffffff1916908160001a9053506121dc600a86612a96565b9450612156565b6001600160a01b0382166122395760405162461bcd60e51b815260206004820181905260248201527f4552433732313a206d696e7420746f20746865207a65726f20616464726573736044820152606401610589565b6000818152600260205260409020546001600160a01b03161561229e5760405162461bcd60e51b815260206004820152601c60248201527f4552433732313a20746f6b656e20616c7265616479206d696e746564000000006044820152606401610589565b6122aa60008383611df9565b6001600160a01b03821660009081526003602052604081208054600192906122d3908490612a7e565b909155505060008181526002602052604080822080546001600160a01b0319166001600160a01b03861690811790915590518392907fddf252ad1be2c89b69c2b068fc378daa952ba7f163c4a11628f55a4df523b3ef908290a45050565b6000600161233e84610b9c565b6123489190612aaa565b60008381526007602052604090205490915080821461239b576001600160a01b03841660009081526006602090815260408083208584528252808320548484528184208190558352600790915290208190555b5060009182526007602090815260408084208490556001600160a01b039094168352600681528383209183525290812055565b6008546000906123e090600190612aaa565b6000838152600960205260408120546008805493945090928490811061241657634e487b7160e01b600052603260045260246000fd5b90600052602060002001549050806008838154811061244557634e487b7160e01b600052603260045260246000fd5b600091825260208083209091019290925582815260099091526040808220849055858252812055600880548061248b57634e487b7160e01b600052603160045260246000fd5b6001900381819060005260206000200160009055905550505050565b60006124b283610b9c565b6001600160a01b039093166000908152600660209081526040808320868452825280832085905593825260079052919091209190915550565b8280546124f790612aed565b90600052602060002090601f016020900481019282612519576000855561255f565b82601f1061253257805160ff191683800117855561255f565b8280016001018555821561255f579182015b8281111561255f578251825591602001919060010190612544565b5061256b9291506125a5565b5090565b50805461257b90612aed565b6000825580601f1061258b575050565b601f016020900490600052602060002090810190610a8291905b5b8082111561256b57600081556001016125a6565b600067ffffffffffffffff808411156125d5576125d5612b83565b604051601f8501601f19908116603f011681019082821181831017156125fd576125fd612b83565b8160405280935085815286868601111561261657600080fd5b858560208301376000602087830101525050509392505050565b80356001600160a01b038116811461264757600080fd5b919050565b803560ff8116811461264757600080fd5b60006020828403121561266e578081fd5b611eb182612630565b60008060408385031215612689578081fd5b61269283612630565b91506126a060208401612630565b90509250929050565b6000806000606084860312156126bd578081fd5b6126c684612630565b92506126d460208501612630565b9150604084013590509250925092565b600080600080608085870312156126f9578081fd5b61270285612630565b935061271060208601612630565b925060408501359150606085013567ffffffffffffffff811115612732578182fd5b8501601f81018713612742578182fd5b612751878235602084016125ba565b91505092959194509250565b60008060008060008060c08789031215612775578182fd5b61277e87612630565b955061278c60208801612630565b9450604087013593506127a16060880161264c565b92506080870135915060a087013590509295509295509295565b600080604083850312156127cd578182fd5b6127d683612630565b9150602083013580151581146127ea578182fd5b809150509250929050565b60008060408385031215612807578182fd5b61281083612630565b946020939093013593505050565b600080600080600080600060c0888a031215612838578081fd5b61284188612630565b965060208801359550604088013567ffffffffffffffff80821115612864578283fd5b818a0191508a601f830112612877578283fd5b813581811115612885578384fd5b8b6020828501011115612896578384fd5b6020830197508096505050506128ae6060890161264c565b92506080880135915060a0880135905092959891949750929550565b6000806000606084860312156128de578081fd5b6128e784612630565b925060208401359150604084013567ffffffffffffffff811115612909578182fd5b8401601f81018613612919578182fd5b612928868235602084016125ba565b9150509250925092565b600060208284031215612943578081fd5b8135611eb181612b99565b60006020828403121561295f578081fd5b8151611eb181612b99565b60006020828403121561297b578081fd5b5035919050565b6000815180845261299a816020860160208601612ac1565b601f01601f19169290920160200192915050565b8781528660208201526bffffffffffffffffffffffff198660601b16604082015284605482015282846074830137607492019182015260940195945050505050565b8183823760009101908152919050565b60008351612a12818460208801612ac1565b835190830190612a26818360208801612ac1565b01949350505050565b60006001600160a01b03808716835280861660208401525083604083015260806060830152612a616080830184612982565b9695505050505050565b602081526000611eb16020830184612982565b60008219821115612a9157612a91612b57565b500190565b600082612aa557612aa5612b6d565b500490565b600082821015612abc57612abc612b57565b500390565b60005b83811015612adc578181015183820152602001612ac4565b83811115610ce15750506000910152565b600181811c90821680612b0157607f821691505b60208210811415612b2257634e487b7160e01b600052602260045260246000fd5b50919050565b6000600019821415612b3c57612b3c612b57565b5060010190565b600082612b5257612b52612b6d565b500690565b634e487b7160e01b600052601160045260246000fd5b634e487b7160e01b600052601260045260246000fd5b634e487b7160e01b600052604160045260246000fd5b6001600160e01b031981168114610a8257600080fdfea26469706673582212202c9ca2b998461777b2419c9f681c72561b9558714ec6bf5e55b24bfe21aa119b64736f6c63430008040033",
  "linkReferences": {},
  "deployedLinkReferences": {}
}