{
  "_format": "hh-sol-artifact-1",
  "contractName": "NFTEIP712EIP191",
  "sourceName": "contracts/ERC721EIP191.sol",
  "abi": [
    {
      "inputs": [],
      "stateMutability": "nonpayable",
      "type": "constructor"
    },
    {
      "anonymous": false,
      "inputs": [
        {
          "indexed": true,
          "internalType": "address",
          "name": "owner",
          "type": "address"
        },
        {
          "indexed": true,
          "internalType": "address",
          "name": "approved",
          "type": "address"
        },
        {
          "indexed": true,
          "internalType": "uint256",
          "name": "tokenId",
          "type": "uint256"
        }
      ],
      "name": "Approval",
      "type": "event"
    },
    {
      "anonymous": false,
      "inputs": [
        {
          "indexed": true,
          "internalType": "address",
          "name": "owner",
          "type": "address"
        },
        {
          "indexed": true,
          "internalType": "address",
          "name": "operator",
          "type": "address"
        },
        {
          "indexed": false,
          "internalType": "bool",
          "name": "approved",
          "type": "bool"
        }
      ],
      "name": "ApprovalForAll",
      "type": "event"
    },
    {
      "anonymous": false,
      "inputs": [
        {
          "indexed": true,
          "internalType": "address",
          "name": "previousOwner",
          "type": "address"
        },
        {
          "indexed": true,
          "internalType": "address",
          "name": "newOwner",
          "type": "address"
        }
      ],
      "name": "OwnershipTransferred",
      "type": "event"
    },
    {
      "anonymous": false,
      "inputs": [
        {
          "indexed": true,
          "internalType": "address",
          "name": "from",
          "type": "address"
        },
        {
          "indexed": true,
          "internalType": "address",
          "name": "to",
          "type": "address"
        },
        {
          "indexed": true,
          "internalType": "uint256",
          "name": "tokenId",
          "type": "uint256"
        }
      ],
      "name": "Transfer",
      "type": "event"
    },
    {
      "inputs": [],
      "name": "MINT_STRUCT_HASH",
      "outputs": [
        {
          "internalType": "bytes32",
          "name": "",
          "type": "bytes32"
        }
      ],
      "stateMutability": "view",
      "type": "function"
    },
    {
      "inputs": [],
      "name": "SAFE_TRANSFER_SIG",
      "outputs": [
        {
          "internalType": "bytes32",
          "name": "",
          "type": "bytes32"
        }
      ],
      "stateMutability": "view",
      "type": "function"
    },
    {
      "inputs": [
        {
          "internalType": "address",
          "name": "to",
          "type": "address"
        },
        {
          "internalType": "uint256",
          "name": "tokenId",
          "type": "uint256"
        }
      ],
      "name": "approve",
      "outputs": [],
      "stateMutability": "nonpayable",
      "type": "function"
    },
    {
      "inputs": [
        {
          "internalType": "address",
          "name": "owner",
          "type": "address"
        }
      ],
      "name": "balanceOf",
      "outputs": [
        {
          "internalType": "uint256",
          "name": "",
          "type": "uint256"
        }
      ],
      "stateMutability": "view",
      "type": "function"
    },
    {
      "inputs": [
        {
          "internalType": "uint256",
          "name": "tokenId",
          "type": "uint256"
        }
      ],
      "name": "burn",
      "outputs": [],
      "stateMutability": "nonpayable",
      "type": "function"
    },
    {
      "inputs": [],
      "name": "domainSeparator",
      "outputs": [
        {
          "internalType": "bytes32",
          "name": "",
          "type": "bytes32"
        }
      ],
      "stateMutability": "view",
      "type": "function"
    },
    {
      "inputs": [
        {
          "internalType": "uint256",
          "name": "tokenId",
          "type": "uint256"
        }
      ],
      "name": "getApproved",
      "outputs": [
        {
          "internalType": "address",
          "name": "",
          "type": "address"
        }
      ],
      "stateMutability": "view",
      "type": "function"
    },
    {
      "inputs": [
        {
          "internalType": "address",
          "name": "_owner",
          "type": "address"
        }
      ],
      "name": "initialized",
      "outputs": [],
      "stateMutability": "nonpayable",
      "type": "function"
    },
    {
      "inputs": [
        {
          "internalType": "address",
          "name": "owner",
          "type": "address"
        },
        {
          "internalType": "address",
          "name": "operator",
          "type": "address"
        }
      ],
      "name": "isApprovedForAll",
      "outputs": [
        {
          "internalType": "bool",
          "name": "",
          "type": "bool"
        }
      ],
      "stateMutability": "view",
      "type": "function"
    },
    {
      "inputs": [],
      "name": "name",
      "outputs": [
        {
          "internalType": "string",
          "name": "",
          "type": "string"
        }
      ],
      "stateMutability": "view",
      "type": "function"
    },
    {
      "inputs": [
        {
          "internalType": "address",
          "name": "",
          "type": "address"
        }
      ],
      "name": "nonce",
      "outputs": [
        {
          "internalType": "uint256",
          "name": "",
          "type": "uint256"
        }
      ],
      "stateMutability": "view",
      "type": "function"
    },
    {
      "inputs": [],
      "name": "owner",
      "outputs": [
        {
          "internalType": "address",
          "name": "",
          "type": "address"
        }
      ],
      "stateMutability": "view",
      "type": "function"
    },
    {
      "inputs": [
        {
          "internalType": "uint256",
          "name": "tokenId",
          "type": "uint256"
        }
      ],
      "name": "ownerOf",
      "outputs": [
        {
          "internalType": "address",
          "name": "",
          "type": "address"
        }
      ],
      "stateMutability": "view",
      "type": "function"
    },
    {
      "inputs": [],
      "name": "renounceOwnership",
      "outputs": [],
      "stateMutability": "nonpayable",
      "type": "function"
    },
    {
      "inputs": [
        {
          "internalType": "address",
          "name": "to",
          "type": "address"
        },
        {
          "internalType": "uint256",
          "name": "tokenId",
          "type": "uint256"
        },
        {
          "internalType": "string",
          "name": "uri",
          "type": "string"
        }
      ],
      "name": "safeMint",
      "outputs": [],
      "stateMutability": "nonpayable",
      "type": "function"
    },
    {
      "inputs": [
        {
          "internalType": "address",
          "name": "to",
          "type": "address"
        },
        {
          "internalType": "uint256",
          "name": "tokenId",
          "type": "uint256"
        },
        {
          "internalType": "string",
          "name": "uri",
          "type": "string"
        },
        {
          "internalType": "uint8",
          "name": "v",
          "type": "uint8"
        },
        {
          "internalType": "bytes32",
          "name": "r",
          "type": "bytes32"
        },
        {
          "internalType": "bytes32",
          "name": "s",
          "type": "bytes32"
        }
      ],
      "name": "safeMintWithSig",
      "outputs": [],
      "stateMutability": "nonpayable",
      "type": "function"
    },
    {
      "inputs": [
        {
          "internalType": "address",
          "name": "from",
          "type": "address"
        },
        {
          "internalType": "address",
          "name": "to",
          "type": "address"
        },
        {
          "internalType": "uint256",
          "name": "tokenId",
          "type": "uint256"
        }
      ],
      "name": "safeTransferFrom",
      "outputs": [],
      "stateMutability": "nonpayable",
      "type": "function"
    },
    {
      "inputs": [
        {
          "internalType": "address",
          "name": "from",
          "type": "address"
        },
        {
          "internalType": "address",
          "name": "to",
          "type": "address"
        },
        {
          "internalType": "uint256",
          "name": "tokenId",
          "type": "uint256"
        },
        {
          "internalType": "bytes",
          "name": "data",
          "type": "bytes"
        }
      ],
      "name": "safeTransferFrom",
      "outputs": [],
      "stateMutability": "nonpayable",
      "type": "function"
    },
    {
      "inputs": [
        {
          "internalType": "address",
          "name": "signatory",
          "type": "address"
        },
        {
          "internalType": "address",
          "name": "to",
          "type": "address"
        },
        {
          "internalType": "uint256",
          "name": "tokenId",
          "type": "uint256"
        },
        {
          "internalType": "uint8",
          "name": "v",
          "type": "uint8"
        },
        {
          "internalType": "bytes32",
          "name": "r",
          "type": "bytes32"
        },
        {
          "internalType": "bytes32",
          "name": "s",
          "type": "bytes32"
        }
      ],
      "name": "safeTransferFromSig",
      "outputs": [],
      "stateMutability": "nonpayable",
      "type": "function"
    },
    {
      "inputs": [
        {
          "internalType": "address",
          "name": "operator",
          "type": "address"
        },
        {
          "internalType": "bool",
          "name": "approved",
          "type": "bool"
        }
      ],
      "name": "setApprovalForAll",
      "outputs": [],
      "stateMutability": "nonpayable",
      "type": "function"
    },
    {
      "inputs": [
        {
          "internalType": "bytes4",
          "name": "interfaceId",
          "type": "bytes4"
        }
      ],
      "name": "supportsInterface",
      "outputs": [
        {
          "internalType": "bool",
          "name": "",
          "type": "bool"
        }
      ],
      "stateMutability": "view",
      "type": "function"
    },
    {
      "inputs": [],
      "name": "symbol",
      "outputs": [
        {
          "internalType": "string",
          "name": "",
          "type": "string"
        }
      ],
      "stateMutability": "view",
      "type": "function"
    },
    {
      "inputs": [
        {
          "internalType": "uint256",
          "name": "index",
          "type": "uint256"
        }
      ],
      "name": "tokenByIndex",
      "outputs": [
        {
          "internalType": "uint256",
          "name": "",
          "type": "uint256"
        }
      ],
      "stateMutability": "view",
      "type": "function"
    },
    {
      "inputs": [
        {
          "internalType": "address",
          "name": "owner",
          "type": "address"
        },
        {
          "internalType": "uint256",
          "name": "index",
          "type": "uint256"
        }
      ],
      "name": "tokenOfOwnerByIndex",
      "outputs": [
        {
          "internalType": "uint256",
          "name": "",
          "type": "uint256"
        }
      ],
      "stateMutability": "view",
      "type": "function"
    },
    {
      "inputs": [
        {
          "internalType": "uint256",
          "name": "tokenId",
          "type": "uint256"
        }
      ],
      "name": "tokenURI",
      "outputs": [
        {
          "internalType": "string",
          "name": "",
          "type": "string"
        }
      ],
      "stateMutability": "view",
      "type": "function"
    },
    {
      "inputs": [],
      "name": "totalSupply",
      "outputs": [
        {
          "internalType": "uint256",
          "name": "",
          "type": "uint256"
        }
      ],
      "stateMutability": "view",
      "type": "function"
    },
    {
      "inputs": [
        {
          "internalType": "address",
          "name": "from",
          "type": "address"
        },
        {
          "internalType": "address",
          "name": "to",
          "type": "address"
        },
        {
          "internalType": "uint256",
          "name": "tokenId",
          "type": "uint256"
        }
      ],
      "name": "transferFrom",
      "outputs": [],
      "stateMutability": "nonpayable",
      "type": "function"
    },
    {
      "inputs": [
        {
          "internalType": "address",
          "name": "newOwner",
          "type": "address"
        }
      ],
      "name": "transferOwnership",
      "outputs": [],
      "stateMutability": "nonpayable",
      "type": "function"
    }
  ],
  "bytecode": "0x610140604052600d805460ff191690553480156200001c57600080fd5b506040518060400160405280601181526020017027232a1022a4a8189c989322a4a81b989960791b81525060405180604001604052806005815260200164312e302e3160d81b8152506040518060400160405280601181526020017027232a1022a4a8189c989322a4a81b989960791b8152506040518060400160405280600381526020016213919560ea1b8152508160009080519060200190620000c392919062000177565b508051620000d990600190602084019062000177565b5050825160208085019190912083518483012060e08290526101008190524660a0818152604080517f8b73c3c69bb8fe3d512ecc4cf759cc79239f7b179b0ffacaa9a75d522b39400f81880181905281830187905260608201869052608082019490945230818401528151808203909301835260c0019052805194019390932091935091906080523060601b60c05261012052506200025a92505050565b82805462000185906200021d565b90600052602060002090601f016020900481019282620001a95760008555620001f4565b82601f10620001c457805160ff1916838001178555620001f4565b82800160010185558215620001f4579182015b82811115620001f4578251825591602001919060010190620001d7565b506200020292915062000206565b5090565b5b8082111562000202576000815560010162000207565b600181811c908216806200023257607f821691505b602082108114156200025457634e487b7160e01b600052602260045260246000fd5b50919050565b60805160a05160c05160601c60e0516101005161012051612c6c620002ad60003960006112e1015260006113300152600061130b015260006112640152600061128e015260006112b80152612c6c6000f3fe608060405234801561001057600080fd5b50600436106101c45760003560e01c806370ae92d2116100f9578063c87b56dd11610097578063e985e9c511610071578063e985e9c5146103e2578063f107cdd01461041e578063f2fde38b14610431578063f698da251461044457600080fd5b8063c87b56dd146103a9578063cbca47db146103bc578063cd279c7c146103cf57600080fd5b8063921d12ba116100d3578063921d12ba1461035457806395d89b411461037b578063a22cb46514610383578063b88d4fde1461039657600080fd5b806370ae92d21461031b578063715018a61461033b5780638da5cb5b1461034357600080fd5b806323b872dd1161016657806342966c681161014057806342966c68146102cf5780634f6ccce7146102e25780636352211e146102f557806370a082311461030857600080fd5b806323b872dd146102965780632f745c59146102a957806342842e0e146102bc57600080fd5b8063081812fc116101a2578063081812fc1461023b578063095ea7b3146102665780630b62d4441461027b57806318160ddd1461028e57600080fd5b806301ffc9a7146101c957806306fdde03146101f157806307a7018614610206575b600080fd5b6101dc6101d73660046129b9565b61044c565b60405190151581526020015b60405180910390f35b6101f961045d565b6040516101e89190612af2565b61022d7f955119ae08b624296df45117d47828b38879e2269f006f7ce630815dbe3f745b81565b6040519081526020016101e8565b61024e6102493660046129f1565b6104ef565b6040516001600160a01b0390911681526020016101e8565b61027961027436600461287c565b610516565b005b6102796102893660046127e4565b61064d565b60085461022d565b6102796102a4366004612730565b6108ef565b61022d6102b736600461287c565b610968565b6102796102ca366004612730565b610a10565b6102796102dd3660046129f1565b610a2b565b61022d6102f03660046129f1565b610aa3565b61024e6103033660046129f1565b610b55565b61022d6103163660046126e4565b610bba565b61022d6103293660046126e4565b600c6020526000908152604090205481565b610279610c54565b600b546001600160a01b031661024e565b61022d7fe0fb4d27dc1b2615cb5dcad42f29b34155f1ee9c4a51cb42ee1ddda16388ed3c81565b6101f9610c68565b610279610391366004612842565b610c77565b6102796103a436600461276b565b610c86565b6101f96103b73660046129f1565b610d05565b6102796103ca3660046126e4565b610d10565b6102796103dd366004612951565b610d79565b6101dc6103f03660046126fe565b6001600160a01b03918216600090815260056020908152604080832093909416825291909152205460ff1690565b61027961042c3660046128a5565b610d95565b61027961043f3660046126e4565b611018565b61022d6110a5565b6000610457826110b4565b92915050565b60606000805461046c90612b74565b80601f016020809104026020016040519081016040528092919081815260200182805461049890612b74565b80156104e55780601f106104ba576101008083540402835291602001916104e5565b820191906000526020600020905b8154815290600101906020018083116104c857829003601f168201915b5050505050905090565b60006104fa826110f2565b506000908152600460205260409020546001600160a01b031690565b600061052182610b55565b9050806001600160a01b0316836001600160a01b031614156105b05760405162461bcd60e51b815260206004820152602160248201527f4552433732313a20617070726f76616c20746f2063757272656e74206f776e6560448201527f720000000000000000000000000000000000000000000000000000000000000060648201526084015b60405180910390fd5b336001600160a01b03821614806105cc57506105cc81336103f0565b61063e5760405162461bcd60e51b815260206004820152603e60248201527f4552433732313a20617070726f76652063616c6c6572206973206e6f7420746f60448201527f6b656e206f776e6572206e6f7220617070726f76656420666f7220616c6c000060648201526084016105a7565b6106488383611156565b505050565b6001600160a01b0386166000908152600c602052604081208054829061067290612baf565b9182905550604080517f955119ae08b624296df45117d47828b38879e2269f006f7ce630815dbe3f745b60208201526001600160a01b03891691810191909152606081018790526080810182905290915060009060a00160405160208183030381529060405280519060200120905060006106f76106ef836111c4565b87878761122d565b90506000610703611257565b6040805160208101929092527f955119ae08b624296df45117d47828b38879e2269f006f7ce630815dbe3f745b9082015260608a811b6bffffffffffffffffffffffff191690820152607481018990526094810185905260b40160405160208183030381529060405280519060200120905060006107d96107d1836040517f19457468657265756d205369676e6564204d6573736167653a0a3332000000006020820152603c8101829052600090605c01604051602081830303815290604052805190602001209050919050565b89898961122d565b905060006107e68a610b55565b9050816001600160a01b0316816001600160a01b031614806108195750836001600160a01b0316816001600160a01b0316145b6108655760405162461bcd60e51b815260206004820152601360248201527f756e617574686f72697a656420616374696f6e0000000000000000000000000060448201526064016105a7565b806001600160a01b03168c6001600160a01b0316146108c65760405162461bcd60e51b815260206004820152601760248201527f7369676e61746f7279206d757374206265206f776e657200000000000000000060448201526064016105a7565b6108e1818c8c6040518060200160405280600081525061137e565b505050505050505050505050565b6108fa335b826113fc565b61095d5760405162461bcd60e51b815260206004820152602e60248201527f4552433732313a2063616c6c6572206973206e6f7420746f6b656e206f776e6560448201526d1c881b9bdc88185c1c1c9bdd995960921b60648201526084016105a7565b61064883838361147a565b600061097383610bba565b82106109e75760405162461bcd60e51b815260206004820152602b60248201527f455243373231456e756d657261626c653a206f776e657220696e646578206f7560448201527f74206f6620626f756e647300000000000000000000000000000000000000000060648201526084016105a7565b506001600160a01b03919091166000908152600660209081526040808320938352929052205490565b61064883838360405180602001604052806000815250610c86565b610a34336108f4565b610a975760405162461bcd60e51b815260206004820152602e60248201527f4552433732313a2063616c6c6572206973206e6f7420746f6b656e206f776e6560448201526d1c881b9bdc88185c1c1c9bdd995960921b60648201526084016105a7565b610aa081611652565b50565b6000610aae60085490565b8210610b225760405162461bcd60e51b815260206004820152602c60248201527f455243373231456e756d657261626c653a20676c6f62616c20696e646578206f60448201527f7574206f6620626f756e6473000000000000000000000000000000000000000060648201526084016105a7565b60088281548110610b4357634e487b7160e01b600052603260045260246000fd5b90600052602060002001549050919050565b6000818152600260205260408120546001600160a01b0316806104575760405162461bcd60e51b815260206004820152601860248201527f4552433732313a20696e76616c696420746f6b656e204944000000000000000060448201526064016105a7565b60006001600160a01b038216610c385760405162461bcd60e51b815260206004820152602960248201527f4552433732313a2061646472657373207a65726f206973206e6f74206120766160448201527f6c6964206f776e6572000000000000000000000000000000000000000000000060648201526084016105a7565b506001600160a01b031660009081526003602052604090205490565b610c5c61165b565b610c6660006116b5565b565b60606001805461046c90612b74565b610c82338383611707565b5050565b610c9033836113fc565b610cf35760405162461bcd60e51b815260206004820152602e60248201527f4552433732313a2063616c6c6572206973206e6f7420746f6b656e206f776e6560448201526d1c881b9bdc88185c1c1c9bdd995960921b60648201526084016105a7565b610cff8484848461137e565b50505050565b6060610457826117d6565b600d5460ff1615610d635760405162461bcd60e51b815260206004820152600b60248201527f696e697469616c697a656400000000000000000000000000000000000000000060448201526064016105a7565b600d805460ff19166001179055610aa0816116b5565b610d8161165b565b610d8b83836118df565b61064882826118f9565b6000600c6000610dad600b546001600160a01b031690565b6001600160a01b03166001600160a01b0316815260200190815260200160002060008154610dda90612baf565b919050819055905060007fe0fb4d27dc1b2615cb5dcad42f29b34155f1ee9c4a51cb42ee1ddda16388ed3c89898989604051610e17929190612a77565b604051908190038120610e589493929187906020019485526001600160a01b0393909316602085015260408401919091526060830152608082015260a00190565b6040516020818303038152906040528051906020012090506000610e7a611257565b7fe0fb4d27dc1b2615cb5dcad42f29b34155f1ee9c4a51cb42ee1ddda16388ed3c8b8b8b8b88604051602001610eb69796959493929190612a35565b6040516020818303038152906040528051906020012090506000610ee4610edc846111c4565b88888861122d565b90506000610f426107d1846040517f19457468657265756d205369676e6564204d6573736167653a0a3332000000006020820152603c8101829052600090605c01604051602081830303815290604052805190602001209050919050565b9050610f56600b546001600160a01b031690565b6001600160a01b0316826001600160a01b03161480610f825750600b546001600160a01b038281169116145b610fce5760405162461bcd60e51b815260206004820152601360248201527f756e617574686f72697a6564207369676e65720000000000000000000000000060448201526064016105a7565b610fd88c8c6118df565b6108e18b8b8b8080601f0160208091040260200160405190810160405280939291908181526020018383808284376000920191909152506118f992505050565b61102061165b565b6001600160a01b03811661109c5760405162461bcd60e51b815260206004820152602660248201527f4f776e61626c653a206e6577206f776e657220697320746865207a65726f206160448201527f646472657373000000000000000000000000000000000000000000000000000060648201526084016105a7565b610aa0816116b5565b60006110af611257565b905090565b60006001600160e01b031982167f780e9d630000000000000000000000000000000000000000000000000000000014806104575750610457826119a2565b6000818152600260205260409020546001600160a01b0316610aa05760405162461bcd60e51b815260206004820152601860248201527f4552433732313a20696e76616c696420746f6b656e204944000000000000000060448201526064016105a7565b600081815260046020526040902080546001600160a01b0319166001600160a01b038416908117909155819061118b82610b55565b6001600160a01b03167f8c5be1e5ebec7d5bd14f71427d1e84f3dd0314c0f7b2291e5b200ac8c7c3b92560405160405180910390a45050565b60006104576111d1611257565b836040517f19010000000000000000000000000000000000000000000000000000000000006020820152602281018390526042810182905260009060620160405160208183030381529060405280519060200120905092915050565b600080600061123e87878787611a3d565b9150915061124b81611b2a565b5090505b949350505050565b6000306001600160a01b037f0000000000000000000000000000000000000000000000000000000000000000161480156112b057507f000000000000000000000000000000000000000000000000000000000000000046145b156112da57507f000000000000000000000000000000000000000000000000000000000000000090565b50604080517f00000000000000000000000000000000000000000000000000000000000000006020808301919091527f0000000000000000000000000000000000000000000000000000000000000000828401527f000000000000000000000000000000000000000000000000000000000000000060608301524660808301523060a0808401919091528351808403909101815260c0909201909252805191012090565b61138984848461147a565b61139584848484611d2b565b610cff5760405162461bcd60e51b815260206004820152603260248201527f4552433732313a207472616e7366657220746f206e6f6e20455243373231526560448201527131b2b4bb32b91034b6b83632b6b2b73a32b960711b60648201526084016105a7565b60008061140883610b55565b9050806001600160a01b0316846001600160a01b0316148061144f57506001600160a01b0380821660009081526005602090815260408083209388168352929052205460ff165b8061124f5750836001600160a01b0316611468846104ef565b6001600160a01b031614949350505050565b826001600160a01b031661148d82610b55565b6001600160a01b0316146115095760405162461bcd60e51b815260206004820152602560248201527f4552433732313a207472616e736665722066726f6d20696e636f72726563742060448201527f6f776e657200000000000000000000000000000000000000000000000000000060648201526084016105a7565b6001600160a01b0382166115845760405162461bcd60e51b8152602060048201526024808201527f4552433732313a207472616e7366657220746f20746865207a65726f2061646460448201527f726573730000000000000000000000000000000000000000000000000000000060648201526084016105a7565b61158f838383611e80565b61159a600082611156565b6001600160a01b03831660009081526003602052604081208054600192906115c3908490612b31565b90915550506001600160a01b03821660009081526003602052604081208054600192906115f1908490612b05565b909155505060008181526002602052604080822080546001600160a01b0319166001600160a01b0386811691821790925591518493918716917fddf252ad1be2c89b69c2b068fc378daa952ba7f163c4a11628f55a4df523b3ef91a4505050565b610aa081611e8b565b600b546001600160a01b03163314610c665760405162461bcd60e51b815260206004820181905260248201527f4f776e61626c653a2063616c6c6572206973206e6f7420746865206f776e657260448201526064016105a7565b600b80546001600160a01b038381166001600160a01b0319831681179093556040519116919082907f8be0079c531659141344cd1fd0a4f28419497f9722a3daafe3b4186f6b6457e090600090a35050565b816001600160a01b0316836001600160a01b031614156117695760405162461bcd60e51b815260206004820152601960248201527f4552433732313a20617070726f766520746f2063616c6c65720000000000000060448201526064016105a7565b6001600160a01b03838116600081815260056020908152604080832094871680845294825291829020805460ff191686151590811790915591519182527f17307eab39ab6107e8899845ad3d59bd9653f200f220920489ca2b5937696c31910160405180910390a3505050565b60606117e1826110f2565b6000828152600a6020526040812080546117fa90612b74565b80601f016020809104026020016040519081016040528092919081815260200182805461182690612b74565b80156118735780601f1061184857610100808354040283529160200191611873565b820191906000526020600020905b81548152906001019060200180831161185657829003601f168201915b50505050509050600061189160408051602081019091526000815290565b90508051600014156118a4575092915050565b8151156118d65780826040516020016118be929190612a87565b60405160208183030381529060405292505050919050565b61124f84611ecb565b610c82828260405180602001604052806000815250611f3f565b6000828152600260205260409020546001600160a01b03166119835760405162461bcd60e51b815260206004820152602e60248201527f45524337323155524953746f726167653a2055524920736574206f66206e6f6e60448201527f6578697374656e7420746f6b656e00000000000000000000000000000000000060648201526084016105a7565b6000828152600a60209081526040909120825161064892840190612572565b60006001600160e01b031982167f80ac58cd000000000000000000000000000000000000000000000000000000001480611a0557506001600160e01b031982167f5b5e139f00000000000000000000000000000000000000000000000000000000145b8061045757507f01ffc9a7000000000000000000000000000000000000000000000000000000006001600160e01b0319831614610457565b6000807f7fffffffffffffffffffffffffffffff5d576e7357a4501ddfe92f46681b20a0831115611a745750600090506003611b21565b8460ff16601b14158015611a8c57508460ff16601c14155b15611a9d5750600090506004611b21565b6040805160008082526020820180845289905260ff881692820192909252606081018690526080810185905260019060a0016020604051602081039080840390855afa158015611af1573d6000803e3d6000fd5b5050604051601f1901519150506001600160a01b038116611b1a57600060019250925050611b21565b9150600090505b94509492505050565b6000816004811115611b4c57634e487b7160e01b600052602160045260246000fd5b1415611b555750565b6001816004811115611b7757634e487b7160e01b600052602160045260246000fd5b1415611bc55760405162461bcd60e51b815260206004820152601860248201527f45434453413a20696e76616c6964207369676e6174757265000000000000000060448201526064016105a7565b6002816004811115611be757634e487b7160e01b600052602160045260246000fd5b1415611c355760405162461bcd60e51b815260206004820152601f60248201527f45434453413a20696e76616c6964207369676e6174757265206c656e6774680060448201526064016105a7565b6003816004811115611c5757634e487b7160e01b600052602160045260246000fd5b1415611cb05760405162461bcd60e51b815260206004820152602260248201527f45434453413a20696e76616c6964207369676e6174757265202773272076616c604482015261756560f01b60648201526084016105a7565b6004816004811115611cd257634e487b7160e01b600052602160045260246000fd5b1415610aa05760405162461bcd60e51b815260206004820152602260248201527f45434453413a20696e76616c6964207369676e6174757265202776272076616c604482015261756560f01b60648201526084016105a7565b60006001600160a01b0384163b15611e7857604051630a85bd0160e11b81526001600160a01b0385169063150b7a0290611d6f903390899088908890600401612ab6565b602060405180830381600087803b158015611d8957600080fd5b505af1925050508015611db9575060408051601f3d908101601f19168201909252611db6918101906129d5565b60015b611e5e573d808015611de7576040519150601f19603f3d011682016040523d82523d6000602084013e611dec565b606091505b508051611e565760405162461bcd60e51b815260206004820152603260248201527f4552433732313a207472616e7366657220746f206e6f6e20455243373231526560448201527131b2b4bb32b91034b6b83632b6b2b73a32b960711b60648201526084016105a7565b805181602001fd5b6001600160e01b031916630a85bd0160e11b14905061124f565b50600161124f565b610648838383611fbd565b611e9481612075565b6000818152600a602052604090208054611ead90612b74565b159050610aa0576000818152600a60205260408120610aa0916125f6565b6060611ed6826110f2565b6000611eed60408051602081019091526000815290565b90506000815111611f0d5760405180602001604052806000815250611f38565b80611f178461211c565b604051602001611f28929190612a87565b6040516020818303038152906040525b9392505050565b611f49838361226a565b611f566000848484611d2b565b6106485760405162461bcd60e51b815260206004820152603260248201527f4552433732313a207472616e7366657220746f206e6f6e20455243373231526560448201527131b2b4bb32b91034b6b83632b6b2b73a32b960711b60648201526084016105a7565b6001600160a01b0383166120185761201381600880546000838152600960205260408120829055600182018355919091527ff3f7a9fe364faab93b216da50a3214154f22a0a2b415b23a84c8169e8b636ee30155565b61203b565b816001600160a01b0316836001600160a01b03161461203b5761203b83826123b8565b6001600160a01b0382166120525761064881612455565b826001600160a01b0316826001600160a01b03161461064857610648828261252e565b600061208082610b55565b905061208e81600084611e80565b612099600083611156565b6001600160a01b03811660009081526003602052604081208054600192906120c2908490612b31565b909155505060008281526002602052604080822080546001600160a01b0319169055518391906001600160a01b038416907fddf252ad1be2c89b69c2b068fc378daa952ba7f163c4a11628f55a4df523b3ef908390a45050565b60608161215c57505060408051808201909152600181527f3000000000000000000000000000000000000000000000000000000000000000602082015290565b8160005b8115612186578061217081612baf565b915061217f9050600a83612b1d565b9150612160565b60008167ffffffffffffffff8111156121af57634e487b7160e01b600052604160045260246000fd5b6040519080825280601f01601f1916602001820160405280156121d9576020820181803683370190505b5090505b841561124f576121ee600183612b31565b91506121fb600a86612bca565b612206906030612b05565b60f81b81838151811061222957634e487b7160e01b600052603260045260246000fd5b60200101907effffffffffffffffffffffffffffffffffffffffffffffffffffffffffffff1916908160001a905350612263600a86612b1d565b94506121dd565b6001600160a01b0382166122c05760405162461bcd60e51b815260206004820181905260248201527f4552433732313a206d696e7420746f20746865207a65726f206164647265737360448201526064016105a7565b6000818152600260205260409020546001600160a01b0316156123255760405162461bcd60e51b815260206004820152601c60248201527f4552433732313a20746f6b656e20616c7265616479206d696e7465640000000060448201526064016105a7565b61233160008383611e80565b6001600160a01b038216600090815260036020526040812080546001929061235a908490612b05565b909155505060008181526002602052604080822080546001600160a01b0319166001600160a01b03861690811790915590518392907fddf252ad1be2c89b69c2b068fc378daa952ba7f163c4a11628f55a4df523b3ef908290a45050565b600060016123c584610bba565b6123cf9190612b31565b600083815260076020526040902054909150808214612422576001600160a01b03841660009081526006602090815260408083208584528252808320548484528184208190558352600790915290208190555b5060009182526007602090815260408084208490556001600160a01b039094168352600681528383209183525290812055565b60085460009061246790600190612b31565b6000838152600960205260408120546008805493945090928490811061249d57634e487b7160e01b600052603260045260246000fd5b9060005260206000200154905080600883815481106124cc57634e487b7160e01b600052603260045260246000fd5b600091825260208083209091019290925582815260099091526040808220849055858252812055600880548061251257634e487b7160e01b600052603160045260246000fd5b6001900381819060005260206000200160009055905550505050565b600061253983610bba565b6001600160a01b039093166000908152600660209081526040808320868452825280832085905593825260079052919091209190915550565b82805461257e90612b74565b90600052602060002090601f0160209004810192826125a057600085556125e6565b82601f106125b957805160ff19168380011785556125e6565b828001600101855582156125e6579182015b828111156125e65782518255916020019190600101906125cb565b506125f292915061262c565b5090565b50805461260290612b74565b6000825580601f10612612575050565b601f016020900490600052602060002090810190610aa091905b5b808211156125f2576000815560010161262d565b600067ffffffffffffffff8084111561265c5761265c612c0a565b604051601f8501601f19908116603f0116810190828211818310171561268457612684612c0a565b8160405280935085815286868601111561269d57600080fd5b858560208301376000602087830101525050509392505050565b80356001600160a01b03811681146126ce57600080fd5b919050565b803560ff811681146126ce57600080fd5b6000602082840312156126f5578081fd5b611f38826126b7565b60008060408385031215612710578081fd5b612719836126b7565b9150612727602084016126b7565b90509250929050565b600080600060608486031215612744578081fd5b61274d846126b7565b925061275b602085016126b7565b9150604084013590509250925092565b60008060008060808587031215612780578081fd5b612789856126b7565b9350612797602086016126b7565b925060408501359150606085013567ffffffffffffffff8111156127b9578182fd5b8501601f810187136127c9578182fd5b6127d887823560208401612641565b91505092959194509250565b60008060008060008060c087890312156127fc578182fd5b612805876126b7565b9550612813602088016126b7565b945060408701359350612828606088016126d3565b92506080870135915060a087013590509295509295509295565b60008060408385031215612854578182fd5b61285d836126b7565b915060208301358015158114612871578182fd5b809150509250929050565b6000806040838503121561288e578182fd5b612897836126b7565b946020939093013593505050565b600080600080600080600060c0888a0312156128bf578081fd5b6128c8886126b7565b965060208801359550604088013567ffffffffffffffff808211156128eb578283fd5b818a0191508a601f8301126128fe578283fd5b81358181111561290c578384fd5b8b602082850101111561291d578384fd5b602083019750809650505050612935606089016126d3565b92506080880135915060a0880135905092959891949750929550565b600080600060608486031215612965578081fd5b61296e846126b7565b925060208401359150604084013567ffffffffffffffff811115612990578182fd5b8401601f810186136129a0578182fd5b6129af86823560208401612641565b9150509250925092565b6000602082840312156129ca578081fd5b8135611f3881612c20565b6000602082840312156129e6578081fd5b8151611f3881612c20565b600060208284031215612a02578081fd5b5035919050565b60008151808452612a21816020860160208601612b48565b601f01601f19169290920160200192915050565b8781528660208201526bffffffffffffffffffffffff198660601b16604082015284605482015282846074830137607492019182015260940195945050505050565b8183823760009101908152919050565b60008351612a99818460208801612b48565b835190830190612aad818360208801612b48565b01949350505050565b60006001600160a01b03808716835280861660208401525083604083015260806060830152612ae86080830184612a09565b9695505050505050565b602081526000611f386020830184612a09565b60008219821115612b1857612b18612bde565b500190565b600082612b2c57612b2c612bf4565b500490565b600082821015612b4357612b43612bde565b500390565b60005b83811015612b63578181015183820152602001612b4b565b83811115610cff5750506000910152565b600181811c90821680612b8857607f821691505b60208210811415612ba957634e487b7160e01b600052602260045260246000fd5b50919050565b6000600019821415612bc357612bc3612bde565b5060010190565b600082612bd957612bd9612bf4565b500690565b634e487b7160e01b600052601160045260246000fd5b634e487b7160e01b600052601260045260246000fd5b634e487b7160e01b600052604160045260246000fd5b6001600160e01b031981168114610aa057600080fdfea26469706673582212208b39230b377804710c4f6fa720715e5daeceb486fa6a57bf8a032c77fe66472564736f6c63430008040033",
  "linkReferences": {},
  "deployedLinkReferences": {}
}